:10280100AB08AA09A90A2290E6A0E04401F02290AF
:0B28110000010202DD900002020391B2
:10114900C20CC20BC20A122AE312147B40087F01A7
:10115900122286122CD41229F1D2E843D82090E623
:1011690068E04408F090E65CE0440DF0D2AF90E608
:1011790080E0440AF07FDC7E051219C390E65D74B5
:10118900FFF090E65FF05391EF90E680E054F7F0BE
:10119900538EF8C20C300A05C20A12232E300C23D2
:1011A900122D62501EC20C12241D90E682E030E717
:1011B90004E020E1F290E682E030E604E020E0E796
:0811C900122D67122CB980CD34
:10232E001228011202C4546024E0601224E06009F5
:10233E002440700D12141E8008120F138003121CFD
:09234E002890E6A0E04480F02292
:10141E0012280112281012052214620014690114F8
:10142E007003144306145F08145809144A0A145121
:10143E000B000014771216D34032802D122A06406C
:10144E002B80261229C54024801F122139401D8071
:10145E0018022CC212152F4013800E120C91400C44
:0D146E008007121DA54005800012280822ED
:100F1300122801122810244C604A24D4604914601A
:090F23005224F16067244E70773E
:100F2C00C206122816F54C85F04B90000612039160
:100F3C00F54E85F04D1202C4B4C00BAD4EAC4DAFA6
:100F4C004CAE4B021D671228011202C46440704A59
:0B0F5C00AD4EAC4DAF4CAE4B022AD0A6
:100F6700022A5A122801122816FFAEF0022B9A12F3
:100F77002801122816FFAEF0900004120391FDAC71
:100F8700F012254540198014122CAF90E740EFF07E
:100F970090E68B7401F0E490E68AF022122808228A
:101C28001228011228101205221C4D011C50021CFA
:101C380053031C56041C59051C5C061C5F071C62D8
:101C48004000001C65021F80021C69021B61021C07
:101C5800A9022980022888022757022D761228080F
:011C68002259
:03003300020CFCC0
:040CFC0053D8EF32A8
:03000000020100FA
:1001000078FFE4F6D8FD9030007FFF7E0FE4F0A387
:10011000DFFCDEFA90E0007FFF7E02E4F0A3DFFC6C
:10012000DEFA75817F75B2FF7580FF75B3FF75903C
:100130002F75B4FF75A05575B5FF75B0FF740A90A3
:0E014000E600F07880765508B8FFFA020189D3
:10095100152300003800004700003E00003A000067
:100961004500004100003C52314A120100020000E2
:100971000040370815000101010203016027315CC5
:100981000902000001010080320904000003FF0395
:100991000000070501024000000705810240000038
:0709A100070582034000FF7F
:10125700FAA9077B01745275F00012041690000278
:10126700746575F000120435900004746E75F00013
:10127700120435900006746975F000120435900069
:1012870008747375F00012043590000A746875F0DD
:101297000012043590000C746175F000120435904B
:1012A700000E747775F000120435900010742075E5
:1012B700F000020435F583E0254BF54B2400F58259
:1012C700E434E0AF8222FE245CF582E43431FAA9EB
:0412D700827B0122F3
:1029F10075433175444A754931754A5C12258E1209
:052A01002C7D022C16E3
:10258E00122680AD07AC06EC64147013F540E544DA
:10259E00240AF582E43543F583ECF0A3EDF02275C1
:0225AE004001EA
:0125B0002208
:092C7D0090315E7427F0A3E4F02D
:012C8600222B
:102203007538E07539008539828538837404F0A305
:1022130014F0E5392402FFE43538FAA9077B017489
:0C2223000912030A900001740402031C5D
:101F47007547E0754804854882854783741AF0A36E
:101F57007403F0E5482402FFE43547121257900056
:101F67001274701212B6900014746C1212B69000AC
:091F770016746375F000020435D4
:10162D00753EE0753F1E853F82853E83741EF0A397
:10163D007403F0E53F2402FFE4353E12125790008B
:10164D001274581212B690001474431212B6900010
:10165D0016742D1212B690001874331212B6900033
:10166D001A74301212B6E5407008900018743812D2
:02167D0012B6A3
:01167F002248
:10168000753AE0753B48853B82853A83740EF0A33A
:101690007403F0E53B2402FFE4353AFAA9077B0125
:1016A000744E75F000120416900002744F1212B6B8
:1016B00090000474541212B690000674531212B6BD
:1016C00090000874451212B690000A745475F00028
:0316D000020435DC
:0520D100122D83502BCD
:1020D600754B487EE07F48121FF27400254B1212A2
:1020E600C5F53A8F3B1212BCF5458F461212BCF568
:0A20F600418F421212BCF53C8F3DF1
:052100002212168022EE
:0C2C1600122203121F4712162D0220D1BB
:10279100EFC394074004E4FEFF22EF75F003A42485
:0C27A10023F8120507120366FFAEF022B9
:061CE9008E4F8F508B515D
:101CEF00C2098F828E83E5822404F582E43583F561
:101CFF0083E0FF855082854F83E02D1212CDEF6078
:101D0F00159000021202DDB55102D2091202C42E43
:081D1F001212CD1F80E8A20999
:011D27002299
:0215D9008F4B36
:1015DB00C208E54A2404F582E43549F583E0F54E6B
:1015EB00854A82854983E08026854D82854C83A37D
:1015FB00A3E0D3954E5028200825AD04AB4BAF4D3F
:10160B00AE4C121CE99208854D82854C83E02CFC74
:10161B00245CF582E43431AF82F54C8F4D80CAA245
:01162B0008B6
:01162C00229B
:0A2C87000001020203030404050526
:10103400900004AB08AA09A90A020391EE4CFEEF42
:101044004D2487F582742C3EF583E493FF3395E0B9
:10105400FEEF24A1FFEE34E68F82F583E022FF7CCD
:1010640000547EFDD3EF9480E5F094007E0022903E
:10107400E6837411F0E04420F07401F0E04420F0C1
:101084007412F0E04420F022AB08AA09A90A9000E7
:101094000202039190E740F0E490E68AF090E68B38
:1010A40022AB08AA09A90A0202C4900004120391FF
:0B10B400FFAEF0225391EF90E65D22AA
:102AE300121A09122CA5122C91122A6E122BFC0217
:022AF3001B1EA8
:092CB900122D864003122D442265
:052D6200122938D32204
:052D6700122442D322FA
:1016D300D206900002121037FDACF0ECFEAF05EE1F
:1016E30024FE601114601824027031E54390E6B3C0
:0F16F300F0E544801DE54990E6B3F0E54A801329
:101702001227918E4B8F4CE54C454B600CEE90E6C8
:0B171200B3F0EF90E6B4F08006C206D2
:06171D008002C206A206D4
:0117230022A3
:1021390012108CFBAAF0E5442411F582E43543F52D
:1021490083E0FFD3EB9FEA94004001221210738BC6
:102159000CE50C7003C38001D392053005031228E6
:032169001CD32262
:092CC200E50C12109804F0D32275
:1029C500121034FFAEF01227AD400122121073121F
:0629D500108CF50BD3226B
:102A0600121034FFAEF01227AD400122E50B121072
:052A16009804F0D3223A
:10152F00C2061210A5247F600D14601924027042A8
:10153F00A20BE433802D1210AE1227AD5034E4907D
:10154F00E740F08023121034FFAEF0122A1B502216
:10155F0012103412106240047F0180027F001210BB
:10156F0040540190E740F0E4A3F012109D7402F094
:04157F00D206A206E8
:011583002245
:100C9100D2061210A524FE60092402704FC206027A
:100CA1000CED12109245F070411210AE122A1B5039
:100CB1003912103412106240047F0180027F001249
:100CC100104054FEF0900004120391FDACF07E0040
:100CD10054807803CEC313CE13D8F9FFED540F2FF0
:100CE10090E683F0E04420F08002C20612103464E2
:0A0CF1000145F07003122B07A20664
:010CFB0022D6
:101DA500D2061210A524FE60112402702D12109285
:101DB500640245F06024C20680201210AE122A1B70
:101DC500501612103412106240047F0180027F0009
:0C1DD5001210404401F08002C206A20679
:011DE10022DF
:1027AD00E54A2404F582E43549F583E0FDD3EF9D38
:0C27BD00EE94005003200502C322D3223A
:102A1B00C207EF4E7004D20780083005051215D996
:042A2B009207A20765
:012A2F002284
:1017BE00C0E0C083C08290E6B8E0F50DA3E0F50E60
:1017CE0090E6BBE0F50F90E6BAE0F51090E6BDE0CE
:1017DE00F51190E6BCE0F51290E6BFE0F51390E649
:1017EE00BEE0F514750800750900750A0DD20A12CF
:0C17FE0010B87401F0D082D083D0E0322B
:102AAA00C0E0C083C0821210B87404F0D082D08310
:032ABA00D0E03237
:102ABD00C0E0C083C0821210B87402F0D082D083FF
:032ACD00D0E03224
:012D89003217
:102A3000C0E0C083C082D20C1210B87408F0D082FB
:052A4000D083D0E0325C
:012D8A003216
:012D8B003215
:012D8C003214
:012D8D003213
:012D8E003212
:10290800C0E0C083C082D2025391EF90E65F7404A6
:08291800F0D082D083D0E03240
:10292000C0E0C083C082D2015391EF90E65F74088B
:08293000F0D082D083D0E03228
:012D8F003211
:012D90003210
:012D9100320F
:012D9200320E
:012D9300320D
:012D9400320C
:012D9500320B
:012D9600320A
:012D97003209
:012D98003208
:012D99003207
:012D9A003206
:012D9B003205
:012D9C003204
:012D9D003203
:012D9E003202
:012D9F003201
:012DA0003200
:012DA10032FF
:012DA20032FE
:012DA30032FD
:012DA40032FC
:012DA50032FB
:012DA60032FA
:012DA70032F9
:012DA80032F8
:012DA90032F7
:012DAA0032F6
:012DAB0032F5
:012DAC0032F4
:03004300020D00AB
:03005300020D009B
:100D00000217BE00022ABD00022AAA00022A3000F1
:100D1000022D8900022D8A00022D8B00022D8C00ED
:100D2000022D8D00022D8E000229080002292000CC
:100D3000022D8F00022D9000022D9100022D9200B5
:100D4000022D9300022D8C00022D9400022D95009F
:100D5000022D9600022D9700022D9800022D990079
:100D6000022D9A00022D8C00022D8C00022D8C0089
:100D7000022D9B00022D9C00022D9D00022D9E0045
:100D8000022D9F00022DA000022DA100022DA20025
:100D9000022DA300022DA400022DA500022DA60005
:100DA000022DA700022DA800022DA900022DAA00E5
:080DB000022DAB00022DAC0086
:1019C3008E4B8F4C90E600E054187012E54C2401C6
:1019D300FFE4354BC313F54BEF13F54C801590E63D
:1019E30000E05418FFBF100BE54C25E0F54CE54B28
:1019F30033F54BE54C154CAE4B7002154B4E600561
:061A030012243180EE22E6
:10241D0090E682E044C0F090E681F0438701000031
:04242D000000002289
:102431007400F58690FDA57C05A3E582458370F9BE
:012441002278
:1009A80046322E00050402010341323500C11341CD
:0F09B800322DFF41322BFF41322CFF41323401EF
:072D0C007B017A32793622C7
:101B1E00E4903235F0A3F012263C12246790323650
:101B2E00E0FF7D03122357122D0C121BE6122852D2
:101B3E00C2077F587E1B12135790322DEFF0C2074B
:101B4E007F647E1912135790322BEFF0903234745B
:031B5E0001F02271
:062D4400122D4A021724C3
:062D4A00122B3D0228EFF0
:0A172400903234E030E703022D7A22
:10172E00903234E0541FF54B24FE601324FE6012F9
:10173E0024FC602824F86027240F70260228D60285
:10174E00271D122AF5501BC2077FFA7E001213576F
:10175E0090322CEFF09032347408F02202261A12D6
:02176E001771F1
:011770002256
:102938007B017A32792D1222B07B017A32792B12FF
:0829480022B0122D80022D1AAD
:10244200C2077FFA7E001213578F4FAF4F12193314
:1024520050F9903234E020E703121B1E7B007A0011
:05246200794F0222B0D9
:082CD400903234E04480F0224C
:1028D6001214D7EF14600B04700E7F0212228602C8
:0828E6002CD49032347404F08C
:0128EE0022C7
:10271D001218A0EF14600F0470127F03122286901E
:0C272D0032347410F0229032347404F046
:01273900227D
:10261A00122D0C12225B400A90322CE0FF12193361
:10262A00500F7B017A32792C1222B0903234741016
:02263A00F0228C
:0A17710090322DE0FF1219335042B0
:10177B00903236E0FFE4FD12235712222F121BA4E6
:10178B008F4CE54CB4010E122D0C121BE69032342B
:10179B007401F0800EE54CB4020912209A90323499
:1017AB007402F090322DE0FF7D587C1B1213BF1298
:0217BB002BA958
:0117BD002209
:032D7A00022D1314
:101BA400E4F54D903235E004F0E0C394064002E4DD
:101BB400F0903235E0242EF582E43432F583E0905F
:101BC4003236F0E0FF1229DB4015903236E0FFB4E4
:101BD4000505754D028003754D017D03122357AF32
:011BE4004DB3
:011BE50022DD
:102AF50020130C90322BE0FF1219335002D213A28F
:022B0500132299
:0E2BA900C21390322BE0FF7D647C190213BF33
:1029DB00E540B4010FEF64026008EF64036003BFCE
:0629EB000502D322C32205
:0B09C700C1054130EF00423091210DCE
:10076600F0A3F0A3F0A3F0A3F0A3F0A3F0A3F0A3EB
:10077600F0A3F0229000031202DD90E744F090000F
:10078600021202DD90E745F09000011202DD90E7CB
:1007960046F01202C490E747F0740890E68BF0E446
:1007A60090E68AF02290E6A1E04401F0903086744B
:1007B60002F02290E740F09030E4E090E741F090BC
:1007C600E68B7402221424C0F58274E73CF583EFAD
:1007D600F022AB08AA09A90A9000040203919030FE
:1007E600970204A690E6A0E04401F022FFE54B251F
:1007F6005524C0F582E434E7F583EFF0221202DDDA
:10080600FF0555E555AC5422903094E09030E4F065
:10081600903095E09030E5F02290E740F0E4F54B1B
:10082600F54FF54EF54DF54C22F0E4F54BF54FF549
:100836004EF54DF54C2290E741F0E4A3F0A3F022EB
:10084600900002120391FF9030E4E02290F000E560
:1008560070F0A3E571F02290E68D7480F02290305E
:04086600DF0204A603
:101A090000000090E610E044A0F000000090E6110C
:101A1900E044A0F000000090E612E044F2F000007B
:101A29000090E613E0547FF000000090E614E054C3
:101A39007FF000000090E615E0547FF090E65EE04C
:061A4900440CF002281C11
:10281C001221D200000012085DE4903085F0A3F084
:0B282C00C201C202C203C204C20022AB
:1021D2009030E47401F0F4A3F09030E71204CA00E6
:1021E2000000149030EB7401F09030DF1204CA004A
:1021F200000010E4FF1225B1AE02AF018E6E8F6FA8
:0122020022B9
:1028EF00903086E0FF14600A14600A240270090217
:0828FF00273A022C46122BEFD0
:0129070022AD
:10273A00120A2F5017903093E0B4010302086A90EE
:0D274A003093E0B402030226C11207AB2257
:0B2C4600300207C202E4903086F0224A
:0D2BEF00300009C200C202E4903086F022DE
:100A2F00C206200103020B07754B01754C30754D43
:100A3F009390E68DE0903085F0E4FF903085E0FEF6
:100A4F00EFC39E501C74802FF582E434E7F583E0EA
:100A5F00AB4BAA4CA94D8F8275830012031C0F80DC
:100A6F00DAC20100000012085DEEC3940C500302BD
:100A7F000B041207E4E4FFE4FDFC7808120493C0B2
:100A8F0004C005C006C0071207E4E4FEFDFC781899
:100A9F00120493D003D002D001D000120462C0041C
:100AAF00C005C006C0071207E4E4FFFEE4FC7808A7
:100ABF00120480D003D002D001D000120462C0040F
:100ACF00C005C006C0071207E4E4FFFEFDEC78186E
:100ADF00120480D003D002D001D0001204629030F3
:100AEF00971204BE903094E0F4FFA3E0B50704D250
:0A0AFF0006800580001207ABA20676
:010B090022C9
:10086A0012080E903085E024F4F54B1207E4EF5499
:10087A0003FFE4FEFDFCFBFAF9F8C312046F6019EA
:10088A001207E4C3E54B9FFB1207E4EF5403FFC3CF
:10089A0074049F6B600302092F9030EB7401F0FB24
:1008AA007A3079DF9030A2E012030A9030A1E0900A
:1008BA00000112031C9030A0E090000212031C9069
:1008CA00309FE090000312031C12086412054809C5
:1008DA001800000001090D000000030933000000A0
:1008EA001009330000001109330000001209330017
:1008FA00000013093300000014093300000015003A
:10090A000009509030E71204CA0000000822903013
:10091A00E71204CA0000000E7E307F877B0A7D0141
:10092A00120DB840211207AB229030E71204CA0018
:10093A00000014120864EF540FFFE41225B1AE024E
:06094A00AF018E6E8F6FFD
:010950002284
:1026C10012080E9030E37402F01207E49030E71222
:0F26D10004B2D312046F50030205881207AB2224
:1005880075540075550C90E6A2E030E1030207654A
:10059800754C01754D30754EE7754F0175503075C6
:1005A80051DF9030E3E090E7C0F09030E4E090E76E
:1005B800C1F09030E5E090E7C2F0E4A3F0AB4CAABC
:1005C8004DA94E9000031202DD90E7C4F09000029E
:1005D8001202DD90E7C5F09000011202DD90E7C637
:1005E800F01202C490E7C7F09030EBE090E7C8F053
:1005F800E4120773AB4FAA50A951900003120803E5
:10060800700205541207CB9000021208037002050D
:10061800541207CB90000112080370020554120708
:10062800CB1202C4120806700205541207CB903090
:10063800E71204A6EF24FCF553EE34FFF552120836
:100648006412054806CE0000000106800000000381
:1006580006F00000001006F00000001106F000008F
:10066800001206F00000001306F00000001406F067
:08067800000000150000075FFF
:10068000755630755791855782855683A3E0FFAE26
:100690005574C02E1207F9855782855683E0FF7482
:1006A000C12EF582E434E7F583EFF0AF5574C22F25
:1006B000F582E434E7F58374FFF090D007E0FE7430
:0B06C000C32FF582E434E7F583EEF071
:1006CB00020741E4F54BC3E54B9553E495525013A8
:1006DB007487254BF582E43430F583E01207F2057D
:0B06EB004B80E38051E56F456E6062BC
:1006F600755601856E57856F580555E555AE54708C
:100706000205541424C0F58274E73EF5837401F0A3
:10071600E553155370021552E4F54BC3E54B95535B
:10072600E495525016AB56AA57A958854B82758345
:10073600001202DD1207F2054B80E0E5532555F560
:1007460055E5523554F55400000090E68FE555F016
:0F075600800790E6A2E04401F09030867401F035
:010765002271
:10225B007570411202C4F57130051EE5AA20E11913
:10226B0012085200000090E6917402F0000000E4A6
:0B227B0090E690F0000000D322C32288
:102286007570428F719030EFEFF0E5AA20E11912D8
:10229600085200000090E6917402F0000000E490FD
:0A22A600E690F0000000D322C322EE
:102B0700C20100000012085D903086E0B40202D2D4
:022B170000229A
:102A5A0090E7407442F09030EFE090E741F0740262
:042A6A001207A1228C
:101F80001207D8640145F0702C120846B5071DE40D
:101F9000B5F01990E6A1E04401F012281CD2041219
:101FA00007B2141207B91207A4D2042274801207D0
:091FB000B91207A4221207EA226B
:101C690075500075510075524C1207D8640145F042
:101C7900702A300427903086E090E740B402097456
:101C89000112082FC2048005740212082FE54B12B5
:0F1C9900083CAB50AA51A95212077A221207EA4F
:011CA8002219
:101B61001207D8648145F07036903086E0640170C8
:101B710022120846FDB50714E4B5F01090E74004C1
:101B8100F0A3ED1207C41207A4D2032290E7407418
:101B910081800590E74074801207BC1207A42212CD
:031BA10007EA222E
:101CA90075500075510075524C1207D8648145F082
:101CB900702A300327903086E0FB70080412081F51
:101CC900C2038009EBB40105740212081FE54B1227
:0F1CD900083CAB50AA51A95212077A221207EA0F
:011CE80022D9
:1029800090E6A1E04401F012281C90E7407401F0A9
:072990001207A11207B22299
:10288800903086E0B4020F90E7407401F0E4A312A0
:0A28980007C41207A4221207EA2267
:10275700E490E7400412083FA304F0A314120766AD
:0C276700A312076690E68B74181207A4FA
:012773002243
:042D76001207EA2234
:0C2C220074AB2552F9E43431FA7B012236
:080DB8008E4C8F4D8D4E8B4FC8
:100DC000E4F552E54D454C6019E54ED394205012A0
:100DD000ED254FFFE433FED3EF9420EE6480948042
:100DE0004002C3227FD6122CFC4001227B007A00F5
:100DF0007951121E1F400122755020122C22121E02
:100E00001F40012205521550E550D3940250EC12B8
:100E10002C22122C724001220552122C0974AB258F
:100E200052F582E43431F583EFF0854E50E54E25DE
:100E30004FFFE433FEC3E5509FEE6480F874809862
:100E4000502974AB2550F582E43431F583E0FFE599
:100E50004EFDE550C39DFDE49400FCE54D2DF5826B
:0C0E6000E54C3CF583EFF0055080C2D358
:010E6C002263
:0E09D200011503011C020616020406020000B5
:0B2C510074162FF8E6FFEDA80708221C
:0A2C9100AF15122C2EAF1C022D21EE
:10235700EF24FD6017240324FB5004600F8019123B
:102367002C518002C333D8FCF4F58022122C518003
:0923770002C333D8FCF4F5B022D6
:072D130075805575B0F52233
:072D1A007580FF75B0FF2278
:072D210090D005E04FF02205
:0C2C2E0090D005E0FEEFF4FFEE5FF02216
:10246700E4FFFE9030F075F00FEF1204FBEE75F00D
:102477000FA42583F5837401F00FBF00010EEF64ED
:04248700064E70DFAE
:01248B00222E
:041DE2008C508D5143
:101DE600EFC394004032EFD39406502CE4FEE55145
:101DF6002EF582E43550F583E0FDEF75F00FA4244F
:101E0600F1F582E43430F583E5822EF582E43583FC
:081E1600F583EDF00EBE0ED6BF
:011E1E0022A1
:1025B100EFC394004006EFD3940640077B007A00F6
:1025C100790022EF75F00FA424F0F9743035F0FA98
:0325D1007B012269
:10277400EDC394004016EDD394065010ED75F00FA0
:0D278400A424F0F582E43430F583EFF02258
:1028A200EF1424FD500A600C2404700D740280069B
:0A28B20074018002740412030A226C
:0F2B5E0000000000000001000002000000000065
:0F2B6D007D007BFF7E007F0312029E75560022C3
:0625D4008B4C8A4D894E7C
:1025DA00784F7C007A2B795E122B6D7557007558EF
:0C25EA004FAB4CAA4DA94E7F0712202BCE
:0125F60022C2
:0625F7008B4C8A4D894E59
:1025FD00784F7C007A2B7961122B6D7557007558C9
:0C260D004FAB4CAA4DA94E7F0612202BAB
:01261900229E
:0623A8008B4C8A4D894EAA
:1023AE00784F7C007D007BFF7A2B7964122B717540
:1023BE00570075584FAB4CAA4DA94E7F0512202BD6
:0123CE0022EC
:0623CF008B4C8A4D894E83
:1023D500784F7C007D007BFF7A2B7967122B717516
:1023E500570075584FAB4CAA4DA94E7F0512202BAF
:0123F50022C5
:0623F6008B4C8A4D894E5C
:1023FC00784F7C007D007BFF7A2B796A122B7175EC
:10240C00570075584FAB4CAA4DA94E7F0212202B8A
:01241C00229D
:10202B008F528B538A548955122CE4402985565D67
:10203B0085575E85585FAB53AA54A955AF521215FD
:10204B0084903229E4F0A3740CF07E327F1DFD7C6A
:08205B000012216CD322C32204
:1015840090321DEFF01202C4448090321EF07B01B1
:101594007A32791F122837E4903222F0A3F0AB5D3F
:1015A400AA5EA95F1202C4903224F09000011202D4
:1015B400DD903225F09000021202DD903226F07B9D
:1015C400017A32791D7D0A7C001212DB903227EEFB
:0515D400F0A3EFF0227E
:072D2800F09000010202DD42
:10263C0012222FE490321CF090321CE0FFC3940560
:10264C00500F7C327D0E121DE290321CE004F080A3
:02265C00E72273
:10222F00E490320EF0A3F0A374AAF0A3F0A3F0E4AD
:10223F00903214F0A3F09032137410F0E490321631
:0C224F00F0A3F0A3F0A3F0A3F0A3F02292
:0E2BB7001202C490320E122D2890320FF0221E
:0E2BC5001202C4903218122D28903219F022FC
:0E2BD3001202C4903216122D28903217F022F2
:1026FF0090320FE0FF54F0C4540FF54FEF540FF525
:0D270F005090320EE0F5517B007A00794FBA
:01271C00229A
:102950001202C4903210122D28903211F090000211
:082960001202DD903212F02298
:10283700903210E012030A903211E0900001120367
:0B2847001C903212E090000202031C03
:062D5000903213E0FF22A7
:102968001202C4903213122D2890321AF0900002ED
:082978001202DD90321BF02277
:0B2C5C001202C4FF7C327D0E021DE25C
:1009E0004131E0004231E100004231E30000413199
:0D09F000CB004431CD030C30C04131CC6050
:0F2B7C009031CBE024CDF582E43431F583E022B3
:101E98008F50122C9BE5507BFFB404147A2C79F4F4
:101EA8009031E51205197A2D79369031DD02051940
:101EB8007A2D792F9031E51205197A2D79569031BE
:0B1EC800DD1205199031CBE550F0222F
:10285200D20DC20E43D880C2C7D2C6C2C5122C9BAB
:0B286200D2C4C2C0C2C1D2AEC2BE22AE
:10216C00EF4E602ED3ED9400EC94004025300D2200
:10217C00C20D8E1D8F1E9031E1ECF0A3EDF0E490BA
:10218C0031E3F0A3F09031DD120510120582C2C4C8
:03219C00D2C1228B
:041A4F008E4D8F4EDB
:101A5300120366FF9031E0E0FDC3EF9DE5F09400D3
:101A6300402FE0FFE48FF0120416E4FF9031E0E032
:101A7300FEEFC39E501B74D12FF582E43431F583FE
:101A8300E0FEE54E2FF582E4354DF583EEF00F8051
:011A9300DB77
:011A9400222F
:082CDC00C20EE49031E0F02289
:082CE400300D03C38001D3226F
:082CEC00300E03D38001C32266
:03003B00020E6D45
:100E6D00C0E0C0F0C083C082C0D075D000C000C04B
:100E7D0001C002C003C004C005C006C00730C023B6
:100E8D00C2C09031E0E024D1F582E43431F583E540
:100E9D00C1F09031E0E004F0E0C3940C4005122C59
:100EAD009BD20E30C145C2C19031E1E0FEA3E0FFFF
:100EBD00C39031E4E09F9031E3E09E400F9031E527
:0C0ECD00120510120582D2C4D20D801F45
:100ED9009031E3E0FEA3E0251EF582E51D3EF58392
:0F0EE900E0F56BF5C19031E3E475F001120350B1
:100EF800D007D006D005D004D003D002D001D0004E
:0B0F0800D0D0D082D083D0F0D0E032F7
:0A2C9B0075A0554390205390BF220E
:072D2F00122B7CF452A022DC
:062D5600122B7C42A022BA
:082CF4009031CCE0F452902273
:072D36009031CCE042902235
:1026A100FB3395E0FA90318375F005EB1204FBEAF8
:1026B10075F005A42583F58322C3EF6480948022FD
:102A6E00E58954FD4401F5895389F7122B19E4F5D4
:042A7E0072F5732258
:102B1900C28EC2ABE58954EF4420F589758DF3D295
:022B29008E22FA
:072D3D00C2CAC2CDC2CC22C4
:0D2BFC00758A29758CF9D28CC2B9D2A92234
:032D7D00C28C22E3
:10193300C3EF6480948850051226BA5002C3227400
:1019430001A807088002C333D8FCFF55726008E57D
:10195300735F6003D38001C39207300718C2A9E500
:10196300725F6008E5735F6003D38001C39207EF82
:07197300F45273D2A9A20790
:01197A00224A
:0413BF008C508D5170
:1013C300C3EF6480948850051226BA5002C3227476
:1013D30001A807088002C333D8FCFE55727002C30C
:1013E30022EEF4FD5272C207EF1226A1E07026EF3F
:1013F3001226A27401F09031841226A9E550F0A3BD
:10140300E551F09031861226A9E550F0A3E551F09D
:0A141300ED5273D207EE4272A207F9
:01141D0022AC
:1022B0001202C4FFC364809488501E1226BA4019CB
:1022C0001202C4FF7401A807088002C333D8FCF4CB
:0922D0005272527374FF12030AEA
:0122D90022E2
:041357008E5E8F5FB8
:10135B007F01E4FEC3EE648094885055E5725F70A4
:10136B0049EEFD3395E0FC90318475F005ED1204E8
:10137B00FBEC1226B1E55EF0A3E55FF090318675CC
:10138B00F005ED1204FBEC1226B1E55EF0A3E55F70
:10139B00F03007047D0280027D01EE1226A1EDF0F4
:1013AB00EFF45273EF4272AF06220EEF25E0FF808F
:0313BB00A37FFF0E
:0113BE00220C
:03000B00020B0ADB
:100B0A00C0E0C0F0C083C082C0D075D000C000C0B1
:0D0B1A0001C002C003C004C005C006C00732
:100B2700756D01C28D756C00C3E56C648094885047
:070B37007AE572556D60695B
:100B3E00AF6CEF3395E0FE7C007D0512033E7483AF
:100B4E002FF974313EFA7B0190324512051990004F
:100B5E000312039145F0604190324512051090004A
:100B6E000374FFF5F01203C990000312039145F0D0
:100B7E007027E56D42739032451205101202C4B40F
:100B8E000213900001120391FF900003E5F08FF025
:090B9E001204358004E412030A7C
:100BA700056CE56D25E0F56D020B2FC28C758A2962
:050BB700758CF9D28CE1
:100BBC00D007D006D005D004D003D002D001D0008D
:0B0BCC00D0D0D082D083D0F0D0E03237
:0A12DB008B608A6189628C638D6468
:1012E50075651075662174FF756780756800F56909
:1012F500F56AE4FDFCC3ED9564EC9563504FAB6076
:10130500AA61A9628D828C831202DDFEEE62697B81
:10131500087A00E5695567FEE56A55684E6013E58C
:101325006A25E0FFE569336565F569E5666FF56A88
:10133500800BE56A25E0F56AE56933F569EB1B7015
:10134500011AEB4A70CD0DBD00010C80A8AE69AF46
:011355006A2D
:011356002274
:102105009031FCE4F0A3740CF07E327F027B017AFF
:102115003179FC227B017A3279029031FCE0FCA313
:10212500E0FD227B017A32790A229031FEEEF0A39E
:04213500EFF04E2257
:10219F00C206122CEC5029903200E4F0A37403F025
:1021AF00122105121A4F903202E0B48010122B4EFA
:1021BF00500B7B017A327909122950D206122CDC8E
:0221CF00A20666
:0121D10022EB
:10265E00C206122CEC5018122105121A4F9032029B
:10266E00E0B48608122128122BB7D206122CDCA257
:01267E000655
:01267F002238
:101E5C00E4F54C122CEC5031122105121A4F903231
:101E6C0002E064857020903209E0B4010912212847
:101E7C00122BC5754C01903209E0B40209122128CD
:0B1E8C00122BD3754C02122CDCAF4C63
:011E97002228
:1022DA00C206122CEC5020122105121A4F9032021B
:1022EA00E0B482107B017A3279091229681228BC7B
:0922FA005002D206122CDCA206EF
:0123030022B7
:1028BC00C2071221191212DB12212F700A122D508D
:0928CC00EF54177002D207A207B5
:0128D50022E0
:102B4E001221191212DB12212F7003D38001C3221E
:1009FD0041324200011FFF44323A010204084132E4
:020A0D003E00A9
:1029970090323F1205100202C47DFA7C00AF1F225D
:0729A7007B017A327938222E
:101BE60090323F1205191202C4FF1229A71228A229
:101BF600122997FF121E98122997FF12286D7B0053
:101C06007A00791F1222B0C2077FFA7E001213579C
:101C16008F1FE4903242F0903237F09032397402DE
:021C2600F022AA
:032D8000022CCB57
:1014D700903237E0FF12052214FE001503011508AC
:1014E70002150D03151204151705151C06152107FE
:1014F70015260800001529122A82802612248C80BE
:1015070021122063801C1224B18017121ADA80126C
:10151700121D28800D12197B80081224D680031211
:071527001ED3903239E0FFF2
:01152E00229A
:102A8200AF1F121933500C1229A01213BF90323704
:042A92007401F022B9
:10248C001229A71225D4500D1229A01213BF903275
:10249C00377402F022AF1F1219335008122CCBE400
:0524AC00903239F0221E
:1020630012219F500D1229A01213BF90323774030F
:10207300F022122AF5500C122997FD7F02122774C1
:102083000227C9AF1F121933500C1229A01213BF14
:072093009032377401F022C6
:1024B1001229A71225F7500D1229A01213BF90322D
:1024C100377404F022AF1F1219335008122CCBE4D9
:0524D100903239F022F9
:101ADA0012265E501A121FB9500D1229A01213BFF6
:101AEA009032377405F022122997FD7F04800B1279
:101AFA002AF5500C122997FD7F031227740227C971
:101B0A00AF1F121933500C1229A01213BF9032378B
:041B1A007403F0223E
:101D2800903242E0700A1229A71223A89206800F67
:101D3800903242E0B401081229A71223CF9206304C
:101D4800060D1229A01213BF9032377406F022AF85
:0E1D58001F1219335008122CCBE4903239F0D0
:011D6600225A
:10197B00121E5CEF14602114603124027039122A9C
:10198B00F5500C122997FD7F031227740227C9AF5C
:10199B001F121933502180069032427401F0122924
:1019AB00A01213BF9032377405F0221229A0121324
:0819BB00BF9032377407F022DF
:1024D6001229A71223F6500D1229A01213BF90320B
:1024E600377408F022AF1F1219335008122CCBE4B0
:0524F600903239F022D4
:0C1ED3001222DA50028010122AF5501A78
:101EDF00122D508F4CE54C540660030224FB12293F
:0A1EEF0097FD7F031227740227C934
:101EF900AF1F121933500C1229A01213BF90323799
:041F09007407F02247
:1024FB00122CCB122997FF7D01122357122997FD1E
:10250B00E4FF12277490323F120510122C5C9032AC
:05251B00397401F022FB
:1027C900122CCB122997FF7D0212235790323F1208
:0C27D9000510122C5C9032397401F022C3
:10286D0090323EE0FE743A2FF582E43432F583E087
:0B287D00FFEE4F90323EF0F45290222C
:092CCB0090323EE04290E4F02258
:101FB900C2061226FF784C7C007D007E007F03124A
:101FC900029EE54CD394015006E54D94014004D29C
:101FD900068013E54CB4010EE54DB40109E54EC385
:081FE900943C4002D206A2065E
:011FF10022CD
:100A0F004131EA054131EBFFC18F4131E9024131FB
:0A0A1F00E800017400017500C11029
:0E2BE100F0A3F0A3F0A3F0A3F0A3F0A3F02262
:10209A009031E97402F0E4F575F574D20F122C3A16
:1020AA007B017A3179EB1222B0C2077F377E0012A8
:1020BA0013579031EBEFF09031EAE0FD7F021227DF
:0720CA0074E49031E8F022FC
:0C2C3A00E49031EC122BE1A3122BE122FC
:1018A000122AF5501C9031EAE0FD7F021227749055
:1018B00031EAE0FF7D021223579031E97401F08094
:1018C000239031E8E014600F1460111460132403B6
:1018D0007012122380800D12252080081226E080CD
:0A18E0000312180A9031E9E0FF221C
:10238000E57414600E04701F122B2B501A122C6768
:10239000022A4590D002E020E70DE4F574E020E049
:0823A000069031E87401F022FF
:102520007F031211D1BF01159031FAE0FAA3E090B8
:1025300031F2F0EAA3F09031E87402F022EF700477
:042540009031E8F0FE
:012544002274
:1026E0007F071211D1BF010F9031FAE09031F1F064
:0E26F0009031E87403F022EF70049031E8F0AE
:0126FE0022B9
:10180A007F051211D18F4CE54C640170359031FA85
:10181A00E0FCA3E09031F8F0ECA3F09031EAE0FDAF
:10182A00E4FF1227749031EAE0FF7C317DEC121D4F
:10183A00E29031EAE0FF7D011223579031E9740109
:0A184A00F022E54C70049031E8F044
:011854002271
:0211D1008F4D40
:1011D300754E02754F55E57514602014602C14602C
:1011E300412403706C122B2B5067AF4D122A96408B
:1011F30005E4F54E805B757501805690D002E020C2
:10120300E74F122B8B7575028047122B2B504290A0
:10121300D002E020E0057575038036E4F575F54EE0
:10122300802F90D002E020E62890D001E020100D1E
:10123300F54F9031FAF0A3E4F0D2108014F54FFF8C
:101243009031FAE0F0A3E04FF0C210E4F575754E6B
:0312530001AF4E9A
:011256002275
:102B2B00200F0C9031EBE0FF1219335002D20FA2A1
:022B3B000F2267
:0F2B8B009031EBE0FF7D377C001213BFC20F22A9
:0B2C670090D0067455F0E4F0022C91B0
:102A450090D002E054C1700C90D000741EF0122B8F
:052A55008B75740122E5
:102A960090D002E054C1700A90D000EFF0122B8B58
:042AA600D322C32252
:1023040090E6A0E04401F022903083120350C39081
:102314003081E022FAECFFEAFEEEF0A3EFF0227443
:0A232400402FF582E434E7F5832230
:0A2CA500C211C212E4903082F02246
:10147B00754B027F80903000E4F0A3DFFC7C327D63
:10148B00437F091214CD903243E0FCA3E09032432A
:10149B00122318903243A3E02402F54B7C307D00DD
:1014AB007F0B1214CD50187B017A307900E54BFD80
:1014BB007C001212DBEF4E6003C38001D39212A2A9
:0114CB00120E
:0B14CC00227B007A00794B120BD72224
:032D8300A2122277
:101D670030110412230422903083EEF0A3EFF02DFC
:101D7700FFEE3CFED3EF9480EE9400401190308349
:101D8700E0FEA3E0FF74809FFFE49EFE8004AE04A4
:0E1D9700AF05903080EEF0A3EFF0120FA72200
:102AD000903083EEF0A3EFF0903080ECF0A3EDF0B7
:032AE000D21122EE
:10268000754B027C327D437B007A00794B7F0312CD
:102690000BD75009903243E0FEA3E0FF22E4FEFF97
:0126A0002217
:041FF2008E4C8F4D35
:101FF600754E027C327D437B007A00794E7F091252
:102006000BD7903243E0FCA3E090324312231890A2
:102016003243A3E0F54E7B007A00794EAD4DAC4CD1
:052026007F0B020BD747
:102B3D00903082E014600604700602256A1210BF00
:012B4D002265
:03256A003011200D
:10256D00754B807C307D007B007A00794BE4FF1247
:10257D000BD750079030827401F022122304C21140
:01258D00222B
:1010BF00903080E07002A3E06068E4FFFE90E68A63
:1010CF00F090E68BF00FBF00010E90E6A0E030E14C
:1010DF0004EF4E70F090E6A0E030E106E04401F03E
:1010EF00805090E68BE0754B00F54CE4FFEFC39515
:1010FF004CE4954B5019122323E0FE903083A3E06C
:10110F002F2400F582E43430F583EEF00F80DEE516
:10111F004B854CF012230C954CF0903080E0954BA2
:10112F00F0227C307D007B80E4FF121855400312C3
:09113F002304C211E4903082F097
:011148002284
:100FA700903080E07002A3E07003021033E4FFFE8C
:100FB7000FBF00010E90E6A0E030E104EF4E70F0A5
:100FC70090E6A0E030E102805F903080E0FEA3E091
:100FD700FFC39440EE940050048F4F8003754F4039
:100FE700E4FFEFC3954F500912232374CDF00F8010
:100FF700F1903083A3E0FF7CE77D407B007A0079A6
:101007004F120BD7501FE490E68AF090E68BE54F1E
:10101700F0FF7E00EE8FF012230C9FF0903080E0FF
:0C1027009EF0020FA790E6A0E04401F04C
:01103300229A
:1029AE00AB53AA54A9550202C4E5582552FFE4358B
:0729BE0051FAA9077B012279
:0618EA008F598C5A8D5B42
:1018F000E55B455A6007E559C394804002C3227FE7
:10190000A0122D04400122AF59121F0D4001227F69
:10191000A0122CFC4001227B007A00795C122C7210
:10192000500D122C09855B82855A83EFF08002C32B
:0219300022D3C0
:011932002292
:0C0BD7008F508C518D528B538A548955DD
:100BE300E4F558E5524551600CE94A4B6007E5507E
:100BF300C394804002C3221229AEFFFDE5502DFDB0
:100C0300E433FCD3ED9480EC6480948040087480DA
:100C13009550FEFF8000AB53AA54A955EF12030A67
:100C23001229AED39401405C7FA0122D044001220F
:100C3300AF50121F0D4001227FA0122CFC40012255
:100C43007B007A007957121E1F4001221229AEF54C
:100C530056E556D39402400F1229B7121E1F4001C6
:100C6300220558155680EA1229B7122C7240012228
:100C73000558122C09E5522558F582E43551F583C0
:0D0C8300EFF0D322AD52AC51AF501218EA81
:010C90002241
:1027E5008D52EFC39480400122121F0D400122AF8C
:0C27F50052121F0D400122122C09D322A9
:081855008F4D8C4E8D4F8B501E
:10185D00D206122D6C7FA0122D04400122E4F55109
:10186D00E551C395505023E54F2551F582E4354E92
:10187D00F583E0FDAF4D1227E54004C206800B1243
:10188D002D5C50FB054D055180D6122C09122D7182
:02189D00A206A1
:01189F002226
:062D5C007FA0122D0422ED
:052D6C007F80022D2113
:052D71007F80022C2E02
:030A29000176FF54
:082CFC00EF4401FF121A9522BA
:082D0400EF54FEFF121A9522A4
:101A95008F5DC2077F327E001213578F76E4903236
:101AA50048F0AF76121933500B121AD090324874A1
:101AB50004F0C32290E678E020E6E7121AD090E61B
:101AC50078E04480F0AF5D121F0D227B007A00792B
:051AD500761222B02290
:101F0D00E4903248F0FE90E679EFF00E90E678E03E
:101F1D0020E003EE70F590E678E030E10CE030E281
:101F2D000E9032487403F080069032487402F0909F
:091F3D003248E07003D38001C3B7
:011F46002278
:101E1F00E4903248F0FF90E679E012030A0F90E663
:101E2F0078E020E003EF70F590E678E020E0069090
:101E3F0032487404F090E678E030E206903248744D
:0C1E4F0003F0903248E07003D38001C320
:011E5B002264
:0B2C720090E678E04420F0121E1F22C4
:0D2C090090E678E04440F090E679E0FF228C
:020A2C00C114F3
:032D8600A2142272
:0A2CAF003014047F0180027F002230
:0F2B9A00EF30E005D214022938C214122442226F
:10254500AB07AA06201402C322D3EB9403EA940036
:102555005008ED9405EC94004002C322AF05AD038D
:05256500122357D322F0
:10014E00021149E493A3F8E493A34003F68001F26D
:10015E0008DFF48029E493A3F85407240CC8C333B2
:10016E00C4540F4420C8834004F456800146F6DF81
:10017E00E4800B0102040810204080900951E47EB7
:10018E00019360BCA3FF543F30E509541FFEE49376
:10019E00A360010ECF54C025E060A840B8E493A33D
:1001AE00FAE493A3F8E493A3C8C582C8CAC583CA68
:1001BE00F0A3C8C582C8CAC583CADFE9DEE780BE20
:010A2E0000C7
:1001CE00E709F608DFFA8046E709F208DFFA803E13
:1001DE0088828C83E709F0A3DFFA8032E309F60800
:1001EE00DFFA8078E309F208DFFA807088828C8368
:1001FE00E309F0A3DFFA806489828A83E0A3F6081C
:10020E00DFFA805889828A83E0A3F208DFFA804CF5
:10021E0080D280FA80C680D4806980F280338010CC
:10022E0080A680EA809A80A880DA80E280CA803335
:10023E0089828A83ECFAE493A3C8C582C8CCC583AD
:10024E00CCF0A3C8C582C8CCC583CCDFE9DEE7807D
:10025E000D89828A83E493A3F608DFF9ECFAA9F0FC
:10026E00EDFB2289828A83ECFAE0A3C8C582C8CC52
:10027E00C583CCF0A3C8C582C8CCC583CCDFEADE6B
:10028E00E880DB89828A83E493A3F208DFF980CCCD
:10029E0088F0EF60010E4E60C388F0ED2402B404C6
:1002AE000050B9F582EB2402B4040050AF2323456D
:0602BE00822390021E7372
:1002C400BB010689828A83E0225002E722BBFE0238
:0902D400E32289828A83E493226B
:1002DD00BB010CE58229F582E5833AF583E02250D6
:1002ED0006E92582F8E622BBFE06E92582F8E22220
:0D02FD00E58229F582E5833AF583E493223A
:10030A00BB010689828A83F0225002F722BBFE01D2
:02031A00F322CC
:10031C00F8BB010DE58229F582E5833AF583E8F017
:10032C00225006E92582C8F622BBFE05E92582C8C3
:02033C00F222AB
:10033E00EF8DF0A4A8F0CF8CF0A428CE8DF0A42ED3
:02034E00FE228D
:10035000C5F0F8A3E028F0C5F0F8E5821582700238
:060360001583E038F022D5
:10036600BB010A89828A83E0F5F0A3E02250068762
:10037600F009E71922BBFE07E3F5F009E319228924
:0B038600828A83E493F5F07401932257
:10039100BB0110E58229F582E5833AF583E0F5F0AA
:1003A100A3E0225009E92582F886F008E622BBFE87
:1003B1000AE92582F8E2F5F008E222E5832AF583CD
:0803C100E993F5F0A3E9932292
:1003C900BB010DC58229C582C5833AC58302035085
:1003D9005011C58229F808E5F026F618F5F0E582EE
:1003E90036F622BBFE11C58229F808E225F0F5F0A0
:1003F900F218E23582F222F8E58229F582E5832AAC
:0D040900F58374019325F0F5F0E49338229B
:10041600BB010A89828A83F0E5F0A3F0225006F731
:0F04260009A7F01922BBFE06F3E5F009F319222E
:10043500F8BB0111E58229F582E5833AF583E8F0F9
:10044500E5F0A3F0225009E92582C8F608A6F022B6
:0D045500BBFE09E92582C8F2E5F008F2229D
:0D046200EF4BFFEE4AFEED49FDEC48FC2299
:10046F00EB9FF5F0EA9E42F0E99D42F0E89C45F0E3
:01047F00225A
:10048000E8600FECC313FCED13FDEE13FEEF13FF5A
:03049000D8F1227E
:10049300E8600FEFC333FFEE33FEED33FDEC33FCC7
:0304A300D8F1226B
:0C04A600E0FCA3E0FDA3E0FEA3E0FF22C9
:0C04B200E0F8A3E0F9A3E0FAA3E0FB22CD
:0C04BE00ECF0A3EDF0A3EEF0A3EFF022B1
:1004CA00A8828583F0D083D0821204E11204E1125B
:1004DA0004E11204E1E473E493A3C583C5F0C58380
:1004EA00C8C582C8F0A3C583C5F0C583C8C582C87C
:0104FA0022DF
:0C04FB00A42582F582E5F03583F583220C
:09050700E6FB08E6FA08E6F92219
:09051000E0FBA3E0FAA3E0F922EC
:09051900EBF0A3EAF0A3E9F022E3
:10052200D083D082F8E4937012740193700DA3A368
:1005320093F8740193F5828883E47374029368607C
:06054200EFA3A3A380DF7C
:10054800D083D082E4937012740193700DA3A393A7
:10055800F8740193F5828883E4737402936C7012C3
:100568007403936D700C7404936E70067405936F26
:0A05780060DDA3A3A3A3A3A380CA20
:060582008A838982E47304
:00000001FF
